{
  "_format": "hh-sol-artifact-1",
  "contractName": "LotteryEther",
  "sourceName": "contracts/LotteryEther.sol",
  "abi": [
    {
      "inputs": [
        {
          "internalType": "uint64",
          "name": "_subscriptionId",
          "type": "uint64"
        },
        {
          "internalType": "address",
          "name": "_vrfCoordinator",
          "type": "address"
        },
        {
          "internalType": "bytes32",
          "name": "_keyHash",
          "type": "bytes32"
        },
        {
          "internalType": "bool",
          "name": "_isERC20",
          "type": "bool"
        }
      ],
      "stateMutability": "nonpayable",
      "type": "constructor"
    },
    {
      "inputs": [
        {
          "internalType": "address",
          "name": "have",
          "type": "address"
        },
        {
          "internalType": "address",
          "name": "want",
          "type": "address"
        }
      ],
      "name": "OnlyCoordinatorCanFulfill",
      "type": "error"
    },
    {
      "inputs": [
        {
          "internalType": "address",
          "name": "owner",
          "type": "address"
        }
      ],
      "name": "OwnableInvalidOwner",
      "type": "error"
    },
    {
      "inputs": [
        {
          "internalType": "address",
          "name": "account",
          "type": "address"
        }
      ],
      "name": "OwnableUnauthorizedAccount",
      "type": "error"
    },
    {
      "anonymous": false,
      "inputs": [
        {
          "indexed": false,
          "internalType": "uint32",
          "name": "newGasLimit",
          "type": "uint32"
        }
      ],
      "name": "CallbackGasLimitUpdated",
      "type": "event"
    },
    {
      "anonymous": false,
      "inputs": [
        {
          "indexed": false,
          "internalType": "uint256",
          "name": "newPrice",
          "type": "uint256"
        }
      ],
      "name": "LotteryTicketPriceUpdated",
      "type": "event"
    },
    {
      "anonymous": false,
      "inputs": [
        {
          "indexed": true,
          "internalType": "address",
          "name": "previousOwner",
          "type": "address"
        },
        {
          "indexed": true,
          "internalType": "address",
          "name": "newOwner",
          "type": "address"
        }
      ],
      "name": "OwnershipTransferred",
      "type": "event"
    },
    {
      "anonymous": false,
      "inputs": [
        {
          "indexed": true,
          "internalType": "address",
          "name": "player",
          "type": "address"
        },
        {
          "indexed": false,
          "internalType": "uint256",
          "name": "amount",
          "type": "uint256"
        }
      ],
      "name": "PlayerEntered",
      "type": "event"
    },
    {
      "anonymous": false,
      "inputs": [],
      "name": "PrizeClaimed",
      "type": "event"
    },
    {
      "anonymous": false,
      "inputs": [
        {
          "indexed": true,
          "internalType": "address",
          "name": "winner",
          "type": "address"
        },
        {
          "indexed": false,
          "internalType": "uint256",
          "name": "amount",
          "type": "uint256"
        }
      ],
      "name": "PrizeDistributed",
      "type": "event"
    },
    {
      "anonymous": false,
      "inputs": [
        {
          "indexed": false,
          "internalType": "uint256",
          "name": "requestId",
          "type": "uint256"
        }
      ],
      "name": "RandomWordsRequested",
      "type": "event"
    },
    {
      "anonymous": false,
      "inputs": [
        {
          "indexed": true,
          "internalType": "address",
          "name": "winner",
          "type": "address"
        }
      ],
      "name": "WinnerPicked",
      "type": "event"
    },
    {
      "inputs": [],
      "name": "callbackGasLimit",
      "outputs": [
        {
          "internalType": "uint32",
          "name": "",
          "type": "uint32"
        }
      ],
      "stateMutability": "view",
      "type": "function"
    },
    {
      "inputs": [],
      "name": "enter",
      "outputs": [],
      "stateMutability": "payable",
      "type": "function"
    },
    {
      "inputs": [],
      "name": "getPlayers",
      "outputs": [
        {
          "internalType": "address[]",
          "name": "",
          "type": "address[]"
        }
      ],
      "stateMutability": "view",
      "type": "function"
    },
    {
      "inputs": [],
      "name": "lotteryTicket",
      "outputs": [
        {
          "internalType": "uint256",
          "name": "",
          "type": "uint256"
        }
      ],
      "stateMutability": "view",
      "type": "function"
    },
    {
      "inputs": [],
      "name": "manager",
      "outputs": [
        {
          "internalType": "address",
          "name": "",
          "type": "address"
        }
      ],
      "stateMutability": "view",
      "type": "function"
    },
    {
      "inputs": [],
      "name": "maxTotalFunds",
      "outputs": [
        {
          "internalType": "uint256",
          "name": "",
          "type": "uint256"
        }
      ],
      "stateMutability": "view",
      "type": "function"
    },
    {
      "inputs": [],
      "name": "owner",
      "outputs": [
        {
          "internalType": "address",
          "name": "",
          "type": "address"
        }
      ],
      "stateMutability": "view",
      "type": "function"
    },
    {
      "inputs": [
        {
          "internalType": "address",
          "name": "",
          "type": "address"
        }
      ],
      "name": "pendingWithdrawals",
      "outputs": [
        {
          "internalType": "uint256",
          "name": "",
          "type": "uint256"
        }
      ],
      "stateMutability": "view",
      "type": "function"
    },
    {
      "inputs": [],
      "name": "pickWinner",
      "outputs": [],
      "stateMutability": "nonpayable",
      "type": "function"
    },
    {
      "inputs": [
        {
          "internalType": "uint256",
          "name": "",
          "type": "uint256"
        }
      ],
      "name": "players",
      "outputs": [
        {
          "internalType": "address",
          "name": "",
          "type": "address"
        }
      ],
      "stateMutability": "view",
      "type": "function"
    },
    {
      "inputs": [
        {
          "internalType": "uint256",
          "name": "requestId",
          "type": "uint256"
        },
        {
          "internalType": "uint256[]",
          "name": "randomWords",
          "type": "uint256[]"
        }
      ],
      "name": "rawFulfillRandomWords",
      "outputs": [],
      "stateMutability": "nonpayable",
      "type": "function"
    },
    {
      "inputs": [],
      "name": "recentWinner",
      "outputs": [
        {
          "internalType": "address",
          "name": "",
          "type": "address"
        }
      ],
      "stateMutability": "view",
      "type": "function"
    },
    {
      "inputs": [],
      "name": "renounceOwnership",
      "outputs": [],
      "stateMutability": "nonpayable",
      "type": "function"
    },
    {
      "inputs": [
        {
          "internalType": "uint32",
          "name": "newGasLImit",
          "type": "uint32"
        }
      ],
      "name": "setGasLimit",
      "outputs": [],
      "stateMutability": "nonpayable",
      "type": "function"
    },
    {
      "inputs": [
        {
          "internalType": "uint256",
          "name": "newPrice",
          "type": "uint256"
        }
      ],
      "name": "setLotteryTicket",
      "outputs": [],
      "stateMutability": "nonpayable",
      "type": "function"
    },
    {
      "inputs": [],
      "name": "totalPlayerFunds",
      "outputs": [
        {
          "internalType": "uint256",
          "name": "",
          "type": "uint256"
        }
      ],
      "stateMutability": "view",
      "type": "function"
    },
    {
      "inputs": [
        {
          "internalType": "address",
          "name": "newOwner",
          "type": "address"
        }
      ],
      "name": "transferOwnership",
      "outputs": [],
      "stateMutability": "nonpayable",
      "type": "function"
    },
    {
      "inputs": [],
      "name": "withdrawPrize",
      "outputs": [],
      "stateMutability": "nonpayable",
      "type": "function"
    },
    {
      "stateMutability": "payable",
      "type": "receive"
    }
  ],
  "bytecode": "0x60a0604052620186a0600260156101000a81548163ffffffff021916908363ffffffff1602179055506003600260196101000a81548161ffff021916908361ffff16021790555060016002601b6101000a81548163ffffffff021916908363ffffffff160217905550662386f26fc10000600555683635c9adc5dea0000060065560006007553480156200009257600080fd5b5060405162002221380380620022218339818101604052810190620000b8919062000437565b33838073ffffffffffffffffffffffffffffffffffffffff1660808173ffffffffffffffffffffffffffffffffffffffff168152505050600073ffffffffffffffffffffffffffffffffffffffff168173ffffffffffffffffffffffffffffffffffffffff1603620001645760006040517f1e4fbdf70000000000000000000000000000000000000000000000000000000081526004016200015b9190620004ba565b60405180910390fd5b62000175816200024c60201b60201c565b5033600360006101000a81548173ffffffffffffffffffffffffffffffffffffffff021916908373ffffffffffffffffffffffffffffffffffffffff16021790555083600060146101000a81548167ffffffffffffffff021916908367ffffffffffffffff1602179055508160018190555082600260016101000a81548173ffffffffffffffffffffffffffffffffffffffff021916908373ffffffffffffffffffffffffffffffffffffffff16021790555080600260006101000a81548160ff02191690831515021790555050505050620004d7565b60008060009054906101000a900473ffffffffffffffffffffffffffffffffffffffff169050816000806101000a81548173ffffffffffffffffffffffffffffffffffffffff021916908373ffffffffffffffffffffffffffffffffffffffff1602179055508173ffffffffffffffffffffffffffffffffffffffff168173ffffffffffffffffffffffffffffffffffffffff167f8be0079c531659141344cd1fd0a4f28419497f9722a3daafe3b4186f6b6457e060405160405180910390a35050565b600080fd5b600067ffffffffffffffff82169050919050565b620003348162000315565b81146200034057600080fd5b50565b600081519050620003548162000329565b92915050565b600073ffffffffffffffffffffffffffffffffffffffff82169050919050565b600062000387826200035a565b9050919050565b62000399816200037a565b8114620003a557600080fd5b50565b600081519050620003b9816200038e565b92915050565b6000819050919050565b620003d481620003bf565b8114620003e057600080fd5b50565b600081519050620003f481620003c9565b92915050565b60008115159050919050565b6200041181620003fa565b81146200041d57600080fd5b50565b600081519050620004318162000406565b92915050565b6000806000806080858703121562000454576200045362000310565b5b6000620004648782880162000343565b94505060206200047787828801620003a8565b93505060406200048a87828801620003e3565b92505060606200049d8782880162000420565b91505092959194509250565b620004b4816200037a565b82525050565b6000602082019050620004d16000830184620004a9565b92915050565b608051611d27620004fa60003960008181610419015261046d0152611d276000f3fe60806040526004361061010d5760003560e01c80637317be8311610095578063f206c7aa11610064578063f206c7aa1461031e578063f2fde38b14610349578063f3f4370314610372578063f71d96cb146103af578063fe961729146103ec5761014d565b80637317be83146102955780638b5b9ccc146102be5780638da5cb5b146102e9578063e97dcb62146103145761014d565b80634f8c70cf116100dc5780634f8c70cf146101e857806352d84c62146102135780635d495aea1461023c5780636db1658614610253578063715018a61461027e5761014d565b80631fe543e31461015257806324f746971461017b578063481c6a75146101a657806348d37a58146101d15761014d565b3661014d576040517f08c379a000000000000000000000000000000000000000000000000000000000815260040161014490611203565b60405180910390fd5b600080fd5b34801561015e57600080fd5b50610179600480360381019061017491906113c6565b610417565b005b34801561018757600080fd5b506101906104d7565b60405161019d9190611441565b60405180910390f35b3480156101b257600080fd5b506101bb6104ed565b6040516101c8919061149d565b60405180910390f35b3480156101dd57600080fd5b506101e6610513565b005b3480156101f457600080fd5b506101fd610617565b60405161020a919061149d565b60405180910390f35b34801561021f57600080fd5b5061023a600480360381019061023591906114e4565b61063d565b005b34801561024857600080fd5b506102516106a0565b005b34801561025f57600080fd5b50610268610820565b6040516102759190611520565b60405180910390f35b34801561028a57600080fd5b50610293610826565b005b3480156102a157600080fd5b506102bc60048036038101906102b7919061153b565b61083a565b005b3480156102ca57600080fd5b506102d36108c6565b6040516102e09190611626565b60405180910390f35b3480156102f557600080fd5b506102fe610954565b60405161030b919061149d565b60405180910390f35b61031c61097d565b005b34801561032a57600080fd5b50610333610b86565b6040516103409190611520565b60405180910390f35b34801561035557600080fd5b50610370600480360381019061036b9190611674565b610b8c565b005b34801561037e57600080fd5b5061039960048036038101906103949190611674565b610c12565b6040516103a69190611520565b60405180910390f35b3480156103bb57600080fd5b506103d660048036038101906103d1919061153b565b610c2a565b6040516103e3919061149d565b60405180910390f35b3480156103f857600080fd5b50610401610c69565b60405161040e9190611520565b60405180910390f35b7f000000000000000000000000000000000000000000000000000000000000000073ffffffffffffffffffffffffffffffffffffffff163373ffffffffffffffffffffffffffffffffffffffff16146104c957337f00000000000000000000000000000000000000000000000000000000000000006040517f1cf993f40000000000000000000000000000000000000000000000000000000081526004016104c09291906116a1565b60405180910390fd5b6104d38282610c6f565b5050565b600260159054906101000a900463ffffffff1681565b600360009054906101000a900473ffffffffffffffffffffffffffffffffffffffff1681565b6000600960003373ffffffffffffffffffffffffffffffffffffffff1673ffffffffffffffffffffffffffffffffffffffff1681526020019081526020016000205490506000600960003373ffffffffffffffffffffffffffffffffffffffff1673ffffffffffffffffffffffffffffffffffffffff168152602001908152602001600020819055506000600860006101000a81548173ffffffffffffffffffffffffffffffffffffffff021916908373ffffffffffffffffffffffffffffffffffffffff1602179055507f5131100114cb8fcb831a7bb815f3498e2fe1bdb0de08f64625ca1daa5e6bba4060405160405180910390a16106143382610d92565b50565b600860009054906101000a900473ffffffffffffffffffffffffffffffffffffffff1681565b610645610ef5565b80600260156101000a81548163ffffffff021916908363ffffffff1602179055507f25358b14cd4557629ee75bbccedef47b9c0fe38c159233fb711b4c547692f889816040516106959190611441565b60405180910390a150565b6106a8610ef5565b6001600480549050116106f0576040517f08c379a00000000000000000000000000000000000000000000000000000000081526004016106e79061173c565b60405180910390fd5b6000600260019054906101000a900473ffffffffffffffffffffffffffffffffffffffff1673ffffffffffffffffffffffffffffffffffffffff16635d3b1d30600154600060149054906101000a900467ffffffffffffffff16600260199054906101000a900461ffff16600260159054906101000a900463ffffffff166002601b9054906101000a900463ffffffff166040518663ffffffff1660e01b81526004016107a19594939291906117b5565b6020604051808303816000875af11580156107c0573d6000803e3d6000fd5b505050506040513d601f19601f820116820180604052508101906107e4919061181d565b90507f7fcb39adb5b831fa03838de8ac6af690f48e3339ee8300eff17b1cd8035054df816040516108159190611520565b60405180910390a150565b60065481565b61082e610ef5565b6108386000610f7c565b565b610842610ef5565b60008111610885576040517f08c379a000000000000000000000000000000000000000000000000000000000815260040161087c906118bc565b60405180910390fd5b806005819055507f98489540cb6e5dca8d8c8022852d0f4c56731e3c7eaef80a69d3e8d33b6c150b816040516108bb9190611520565b60405180910390a150565b6060600480548060200260200160405190810160405280929190818152602001828054801561094a57602002820191906000526020600020905b8160009054906101000a900473ffffffffffffffffffffffffffffffffffffffff1673ffffffffffffffffffffffffffffffffffffffff1681526020019060010190808311610900575b5050505050905090565b60008060009054906101000a900473ffffffffffffffffffffffffffffffffffffffff16905090565b6006543460075461098e919061190b565b11156109cf576040517f08c379a00000000000000000000000000000000000000000000000000000000081526004016109c69061198b565b60405180910390fd5b6005543414610a13576040517f08c379a0000000000000000000000000000000000000000000000000000000008152600401610a0a906119f7565b60405180910390fd5b3460076000828254610a25919061190b565b9250508190555060006007541015610a4057610a3f611a17565b5b600073ffffffffffffffffffffffffffffffffffffffff16600860009054906101000a900473ffffffffffffffffffffffffffffffffffffffff1673ffffffffffffffffffffffffffffffffffffffff1614610ad1576040517f08c379a0000000000000000000000000000000000000000000000000000000008152600401610ac890611ab8565b60405180910390fd5b6004339080600181540180825580915050600190039060005260206000200160009091909190916101000a81548173ffffffffffffffffffffffffffffffffffffffff021916908373ffffffffffffffffffffffffffffffffffffffff1602179055503373ffffffffffffffffffffffffffffffffffffffff167fc16481c9484122696a660b57df0bf6839645c6b620cb1704ac2437de13be9225600554604051610b7c9190611520565b60405180910390a2565b60055481565b610b94610ef5565b600073ffffffffffffffffffffffffffffffffffffffff168173ffffffffffffffffffffffffffffffffffffffff1603610c065760006040517f1e4fbdf7000000000000000000000000000000000000000000000000000000008152600401610bfd919061149d565b60405180910390fd5b610c0f81610f7c565b50565b60096020528060005260406000206000915090505481565b60048181548110610c3a57600080fd5b906000526020600020016000915054906101000a900473ffffffffffffffffffffffffffffffffffffffff1681565b60075481565b600060048054905082600081518110610c8b57610c8a611ad8565b5b6020026020010151610c9d9190611b36565b9050600060048281548110610cb557610cb4611ad8565b5b9060005260206000200160009054906101000a900473ffffffffffffffffffffffffffffffffffffffff16905080600860006101000a81548173ffffffffffffffffffffffffffffffffffffffff021916908373ffffffffffffffffffffffffffffffffffffffff160217905550600067ffffffffffffffff811115610d3e57610d3d611283565b5b604051908082528060200260200182016040528015610d6c5781602001602082028036833780820191505090505b5060049080519060200190610d829291906110ff565b50610d8c81611040565b50505050565b600073ffffffffffffffffffffffffffffffffffffffff168273ffffffffffffffffffffffffffffffffffffffff1603610e01576040517f08c379a0000000000000000000000000000000000000000000000000000000008152600401610df890611bb3565b60405180910390fd5b60008111610e44576040517f08c379a0000000000000000000000000000000000000000000000000000000008152600401610e3b90611c1f565b60405180910390fd5b60008273ffffffffffffffffffffffffffffffffffffffff1682604051610e6a90611c70565b60006040518083038185875af1925050503d8060008114610ea7576040519150601f19603f3d011682016040523d82523d6000602084013e610eac565b606091505b5050905080610ef0576040517f08c379a0000000000000000000000000000000000000000000000000000000008152600401610ee790611cd1565b60405180910390fd5b505050565b610efd6110f7565b73ffffffffffffffffffffffffffffffffffffffff16610f1b610954565b73ffffffffffffffffffffffffffffffffffffffff1614610f7a57610f3e6110f7565b6040517f118cdaa7000000000000000000000000000000000000000000000000000000008152600401610f71919061149d565b60405180910390fd5b565b60008060009054906101000a900473ffffffffffffffffffffffffffffffffffffffff169050816000806101000a81548173ffffffffffffffffffffffffffffffffffffffff021916908373ffffffffffffffffffffffffffffffffffffffff1602179055508173ffffffffffffffffffffffffffffffffffffffff168173ffffffffffffffffffffffffffffffffffffffff167f8be0079c531659141344cd1fd0a4f28419497f9722a3daafe3b4186f6b6457e060405160405180910390a35050565b6000600754905080600960008473ffffffffffffffffffffffffffffffffffffffff1673ffffffffffffffffffffffffffffffffffffffff1681526020019081526020016000206000828254611096919061190b565b9250508190555060006007819055508173ffffffffffffffffffffffffffffffffffffffff167fb8e091d87f82e56d22276c9a0088ea5d6068e355383dc08b2721b7b6cb10e845826040516110eb9190611520565b60405180910390a25050565b600033905090565b828054828255906000526020600020908101928215611178579160200282015b828111156111775782518260006101000a81548173ffffffffffffffffffffffffffffffffffffffff021916908373ffffffffffffffffffffffffffffffffffffffff1602179055509160200191906001019061111f565b5b5090506111859190611189565b5090565b5b808211156111a257600081600090555060010161118a565b5090565b600082825260208201905092915050565b7f446972656374207472616e7366657273206e6f7420616c6c6f77656400000000600082015250565b60006111ed601c836111a6565b91506111f8826111b7565b602082019050919050565b6000602082019050818103600083015261121c816111e0565b9050919050565b6000604051905090565b600080fd5b600080fd5b6000819050919050565b61124a81611237565b811461125557600080fd5b50565b60008135905061126781611241565b92915050565b600080fd5b6000601f19601f8301169050919050565b7f4e487b7100000000000000000000000000000000000000000000000000000000600052604160045260246000fd5b6112bb82611272565b810181811067ffffffffffffffff821117156112da576112d9611283565b5b80604052505050565b60006112ed611223565b90506112f982826112b2565b919050565b600067ffffffffffffffff82111561131957611318611283565b5b602082029050602081019050919050565b600080fd5b600061134261133d846112fe565b6112e3565b905080838252602082019050602084028301858111156113655761136461132a565b5b835b8181101561138e578061137a8882611258565b845260208401935050602081019050611367565b5050509392505050565b600082601f8301126113ad576113ac61126d565b5b81356113bd84826020860161132f565b91505092915050565b600080604083850312156113dd576113dc61122d565b5b60006113eb85828601611258565b925050602083013567ffffffffffffffff81111561140c5761140b611232565b5b61141885828601611398565b9150509250929050565b600063ffffffff82169050919050565b61143b81611422565b82525050565b60006020820190506114566000830184611432565b92915050565b600073ffffffffffffffffffffffffffffffffffffffff82169050919050565b60006114878261145c565b9050919050565b6114978161147c565b82525050565b60006020820190506114b2600083018461148e565b92915050565b6114c181611422565b81146114cc57600080fd5b50565b6000813590506114de816114b8565b92915050565b6000602082840312156114fa576114f961122d565b5b6000611508848285016114cf565b91505092915050565b61151a81611237565b82525050565b60006020820190506115356000830184611511565b92915050565b6000602082840312156115515761155061122d565b5b600061155f84828501611258565b91505092915050565b600081519050919050565b600082825260208201905092915050565b6000819050602082019050919050565b61159d8161147c565b82525050565b60006115af8383611594565b60208301905092915050565b6000602082019050919050565b60006115d382611568565b6115dd8185611573565b93506115e883611584565b8060005b8381101561161957815161160088826115a3565b975061160b836115bb565b9250506001810190506115ec565b5085935050505092915050565b6000602082019050818103600083015261164081846115c8565b905092915050565b6116518161147c565b811461165c57600080fd5b50565b60008135905061166e81611648565b92915050565b60006020828403121561168a5761168961122d565b5b60006116988482850161165f565b91505092915050565b60006040820190506116b6600083018561148e565b6116c3602083018461148e565b9392505050565b7f4e6f206d696e696d756d20706c617965727320696e20746865206c6f7474657260008201527f7900000000000000000000000000000000000000000000000000000000000000602082015250565b60006117266021836111a6565b9150611731826116ca565b604082019050919050565b6000602082019050818103600083015261175581611719565b9050919050565b6000819050919050565b61176f8161175c565b82525050565b600067ffffffffffffffff82169050919050565b61179281611775565b82525050565b600061ffff82169050919050565b6117af81611798565b82525050565b600060a0820190506117ca6000830188611766565b6117d76020830187611789565b6117e460408301866117a6565b6117f16060830185611432565b6117fe6080830184611432565b9695505050505050565b60008151905061181781611241565b92915050565b6000602082840312156118335761183261122d565b5b600061184184828501611808565b91505092915050565b7f546865207469636b6574207072696365206d757374206265206120706f73697460008201527f69766520616d6f756e742e000000000000000000000000000000000000000000602082015250565b60006118a6602b836111a6565b91506118b18261184a565b604082019050919050565b600060208201905081810360008301526118d581611899565b9050919050565b7f4e487b7100000000000000000000000000000000000000000000000000000000600052601160045260246000fd5b600061191682611237565b915061192183611237565b9250828201905080821115611939576119386118dc565b5b92915050565b7f45786365656473206d6178696d756d20616c6c6f7765642066756e6473000000600082015250565b6000611975601d836111a6565b91506119808261193f565b602082019050919050565b600060208201905081810360008301526119a481611968565b9050919050565b7f496e636f7272656374207469636b657420616d6d6f756e740000000000000000600082015250565b60006119e16018836111a6565b91506119ec826119ab565b602082019050919050565b60006020820190508181036000830152611a10816119d4565b9050919050565b7f4e487b7100000000000000000000000000000000000000000000000000000000600052600160045260246000fd5b7f4c6173742077696e6e65722070656e64696e6720746f20636f6c6c656374207060008201527f72697a6500000000000000000000000000000000000000000000000000000000602082015250565b6000611aa26024836111a6565b9150611aad82611a46565b604082019050919050565b60006020820190508181036000830152611ad181611a95565b9050919050565b7f4e487b7100000000000000000000000000000000000000000000000000000000600052603260045260246000fd5b7f4e487b7100000000000000000000000000000000000000000000000000000000600052601260045260246000fd5b6000611b4182611237565b9150611b4c83611237565b925082611b5c57611b5b611b07565b5b828206905092915050565b7f496e76616c696420616464726573730000000000000000000000000000000000600082015250565b6000611b9d600f836111a6565b9150611ba882611b67565b602082019050919050565b60006020820190508181036000830152611bcc81611b90565b9050919050565b7f496e76616c696420616d6f756e74000000000000000000000000000000000000600082015250565b6000611c09600e836111a6565b9150611c1482611bd3565b602082019050919050565b60006020820190508181036000830152611c3881611bfc565b9050919050565b600081905092915050565b50565b6000611c5a600083611c3f565b9150611c6582611c4a565b600082019050919050565b6000611c7b82611c4d565b9150819050919050565b7f5472616e73666572206661696c65640000000000000000000000000000000000600082015250565b6000611cbb600f836111a6565b9150611cc682611c85565b602082019050919050565b60006020820190508181036000830152611cea81611cae565b905091905056fea2646970667358221220878f2ceffe26547d7d49a696464fb77a2869e0652bbf6a20e4452da4473b223164736f6c63430008140033",
  "linkReferences": {},
  "deployedLinkReferences": {}
}